:020000040800F2
:1000000000000120A1120008FD2A0008092B0008A9
:100010000F2B0008152B00081B2B00080000000008
:10002000000000000000000000000000212B00087C
:100030002D2B000800000000392B0008452B00087C
:10004000F1120008F1120008F1120008F112000884
:10005000F1120008F1120008F1120008F112000874
:10006000F1120008F1120008F1120008552B0008E7
:10007000F1120008F1120008F1120008F112000854
:10008000F1120008F1120008F1120008F112000844
:10009000F1120008F1120008F1120008F112000834
:1000A000F1120008F1120008F1120008F112000824
:1000B000F11200080000000000000000F11200082A
:1000C000F11200080000000000000000F11200081A
:1000D00000000000F1120008F1120008000000000A
:1000E000F1120008F11200080000000000000000FA
:1000F0000000000000000000000000000000000000
:10010000000000000000000000000000F1120008E4
:100110000000000000000000F1120008F1120008C9
:10012000F1120008F1120008F1120008F1120008A3
:10013000F1120008000000000000000000000000B4
:10014000F1120008F1120008F1120008F112000883
:10015000F1120008F1120008F1120008F112000873
:10016000F1120008F1120008F1120008000000006E
:10017000F1120008F1120008000000000000000069
:10018000F1120008F1120008F1120008000000004E
:1001900010B5054C237833B9044B13B10448AFF3C1
:1001A00000800123237010BDE0010020000000004A
:1001B0006CCD000808B5034B1BB103490348AFF3EE
:1001C000008008BD00000000E40100206CCD0008A4
:1001D000034613F8012B002AFBD1181A0138704787
:1001E00001F0FF01102A2BDB10F0070F08D010F8E8
:1001F000013B013A8B422DD010F0070F42B3F6D1EC
:10020000F0B441EA012141EA014122F007047FF004
:1002100000070023F0E80256083C85EA010586EA5B
:10022000010685FA47F5A3FA87F586FA47F6A5FA97
:1002300087F68EB9EED1F0BC01F0FF0102F00702A3
:1002400032B110F8013B013A83EA010313B1F8D14E
:100250000020704701387047002D06BF354603382F
:10026000073815F0010F07D1013015F4807F02BF68
:10027000013015F4C03F0130F0BC0138704700BFB9
:1002800081F0004102E000BF83F0004330B54FEA47
:1002900041044FEA430594EA050F08BF90EA020FB4
:1002A0001FBF54EA000C55EA020C7FEA645C7FEA47
:1002B000655C00F0E2804FEA5454D4EB5555B8BF6A
:1002C0006D420CDD2C4480EA020281EA030382EADB
:1002D000000083EA010180EA020281EA0303362D6D
:1002E00088BF30BD11F0004F4FEA01314FF4801C40
:1002F0004CEA113102D0404261EB410113F0004F52
:100300004FEA03334CEA133302D0524263EB430308
:1003100094EA050F00F0A780A4F10104D5F1200EA6
:100320000DDB02FA0EFC22FA05F2801841F1000101
:1003300003FA0EF2801843FA05F359410EE0A5F1D5
:1003400020050EF1200E012A03FA0EFC28BF4CF006
:10035000020C43FA05F3C01851EBE37101F00045BC
:1003600007D54FF0000EDCF1000C7EEB00006EEBC9
:100370000101B1F5801F1BD3B1F5001F0CD3490853
:100380005FEA30004FEA3C0C04F101044FEA4452AA
:1003900012F5800F80F09A80BCF1004F08BF5FEA31
:1003A000500C50F1000041EB045141EA050130BD11
:1003B0005FEA4C0C404141EB0101013C28BFB1F523
:1003C000801FE9D291F0000F04BF01460020B1FA6E
:1003D00081F308BF2033A3F10B03B3F120020CDA41
:1003E0000C3208DD02F1140CC2F10C0201FA0CF01F
:1003F00021FA02F10CE002F11402D8BFC2F1200C84
:1004000001FA02F120FA0CFCDCBF41EA0C01904039
:10041000E41AA2BF01EB0451294330BD6FEA040482
:100420001F3C1CDA0C340EDC04F11404C4F120026D
:1004300020FA04F001FA02F340EA030021FA04F37F
:1004400045EA030130BDC4F10C04C4F1200220FAD6
:1004500002F001FA04F340EA0300294630BD21FA14
:1004600004F0294630BD94F0000F83F4801306BFDA
:1004700081F480110134013D4EE77FEA645C18BFCE
:100480007FEA655C29D094EA050F08BF90EA020F65
:1004900005D054EA000C04BF1946104630BD91EA5D
:1004A000030F1EBF0021002030BD5FEA545C05D160
:1004B0004000494128BF41F0004130BD14F580049F
:1004C0003CBF01F5801130BD01F0004545F0FE4113
:1004D00041F470014FF0000030BD7FEA645C1ABF48
:1004E000194610467FEA655C1CBF0B46024650EA7F
:1004F000013406BF52EA033591EA030F41F40021AB
:1005000030BD00BF90F0000F04BF0021704730B530
:100510004FF4806404F132044FF000054FF0000105
:1005200050E700BF90F0000F04BF0021704730B5C6
:100530004FF4806404F1320410F0004548BF40429B
:100540004FF000013EE700BF42004FEAE2014FEAF0
:1005500031014FEA02701FBF12F07F4393F07F4FCB
:1005600081F06051704732F07F4208BF704793F0CE
:100570007F4F04BF41F40021704730B54FF46074E1
:1005800001F0004521F000411CE700BF50EA0102E4
:1005900008BF704730B54FF000050AE050EA01028D
:1005A00008BF704730B511F0004502D5404261EBFD
:1005B00041014FF4806404F132045FEA915C3FF43E
:1005C000D8AE4FF003025FEADC0C18BF03325FEADB
:1005D000DC0C18BF033202EBDC02C2F1200300FA8C
:1005E00003FC20FA02F001FA03FE40EA0E0021FAB1
:1005F00002F11444BDE600BF70B54FF0FF0C4CF49F
:10060000E06C1CEA11541DBF1CEA135594EA0C0F50
:1006100095EA0C0F00F0DEF82C4481EA030621EA8B
:100620004C5123EA4C5350EA013518BF52EA0335C6
:1006300041F4801143F4801338D0A0FB02CE4FF078
:100640000005E1FB02E506F00042E0FB03E54FF0A8
:100650000006E1FB03569CF0000F18BF4EF0010EA0
:10066000A4F1FF04B6F5007F64F5407404D25FEA9C
:100670004E0E6D4146EB060642EAC62141EA55514F
:100680004FEAC52040EA5E504FEACE2EB4F1FD0C91
:1006900088BFBCF5E06F1ED8BEF1004F08BF5FEA0F
:1006A000500E50F1000041EB045170BD06F00046C1
:1006B00046EA010140EA020081EA0301B4EB5C046E
:1006C000C2BFD4EB0C0541EA045170BD41F4801166
:1006D0004FF0000E013C00F3AB8014F1360FDEBF8B
:1006E000002001F0004170BDC4F10004203C35DA67
:1006F0000C341BDC04F11404C4F1200500FA05F3EA
:1007000020FA04F001FA05F240EA020001F000428A
:1007100021F0004110EBD37021FA04F642EB060100
:100720005EEA430E08BF20EAD37070BDC4F10C042A
:10073000C4F1200500FA04F320FA05F001FA04F2EE
:1007400040EA020001F0004110EBD37041F10001DA
:100750005EEA430E08BF20EAD37070BDC4F12005E5
:1007600000FA05F24EEA020E20FA04F301FA05F24D
:1007700043EA020321FA04F001F0004121FA04F2F5
:1007800020EA020000EBD3705EEA430E08BF20EAC5
:10079000D37070BD94F0000F0FD101F000464000FF
:1007A00041EB010111F4801F08BF013CF7D041EA81
:1007B000060195F0000F18BF704703F00046520085
:1007C00043EB030313F4801F08BF013DF7D043EA56
:1007D0000603704794EA0C0F0CEA135518BF95EA0C
:1007E0000C0F0CD050EA410618BF52EA4306D1D193
:1007F00081EA030101F000414FF0000070BD50EAB2
:10080000410606BF1046194652EA430619D094EA3B
:100810000C0F02D150EA013613D195EA0C0F05D125
:1008200052EA03361CBF104619460AD181EA030179
:1008300001F0004141F0FE4141F470014FF0000031
:1008400070BD41F0FE4141F4780170BD70B54FF0CC
:10085000FF0C4CF4E06C1CEA11541DBF1CEA13554C
:1008600094EA0C0F95EA0C0F00F0A7F8A4EB05042E
:1008700081EA030E52EA03354FEA013100F0888025
:100880004FEA03334FF0805545EA131343EA1263EE
:100890004FEA022245EA111545EA10654FEA0026A3
:1008A0000EF000419D4208BF964244F1FD0404F55C
:1008B000407402D25B084FEA3202B61A65EB0305B8
:1008C0005B084FEA32024FF480104FF4002CB6EB75
:1008D000020E75EB030E22BFB61A754640EA0C00F5
:1008E0005B084FEA3202B6EB020E75EB030E22BF35
:1008F000B61A754640EA5C005B084FEA3202B6EB76
:10090000020E75EB030E22BFB61A754640EA9C0034
:100910005B084FEA3202B6EB020E75EB030E22BF04
:10092000B61A754640EADC0055EA060E18D04FEAC2
:10093000051545EA16754FEA06164FEAC30343EA62
:1009400052734FEAC2025FEA1C1CC0D111F4801F2F
:100950000BD141EA00014FF000004FF0004CB6E728
:1009600011F4801F04BF01430020B4F1FD0C88BFC7
:10097000BCF5E06F3FF6AFAEB5EB030C04BFB6EBD2
:10098000020C5FEA500C50F1000041EB045170BDC5
:100990000EF0004E4EEA113114EB5C04C2BFD4EBF2
:1009A0000C0541EA045170BD41F480114FF0000E76
:1009B000013C90E645EA060E8DE60CEA135594EAF2
:1009C0000C0F08BF95EA0C0F3FF43BAF94EA0C0FF5
:1009D0000AD150EA01347FF434AF95EA0C0F7FF46A
:1009E00025AF104619462CE795EA0C0F06D152EABE
:1009F00003353FF4FDAE1046194622E750EA4106A2
:100A000018BF52EA43067FF4C5AE50EA41047FF4B2
:100A10000DAF52EA43057FF4EBAE12E74FF0FF3C17
:100A200006E000BF4FF0010C02E000BF4FF0010CE8
:100A30004DF804CD4FEA410C7FEA6C5C4FEA430C61
:100A400018BF7FEA6C5C1BD001B050EA410C0CBFB0
:100A500052EA430C91EA030F02BF90EA020F002012
:100A6000704710F1000F91EA030F58BF994208BF79
:100A700090422CBFD8176FEAE37040F00100704736
:100A80004FEA410C7FEA6C5C02D150EA013C07D18D
:100A90004FEA430C7FEA6C5CD6D152EA033CD3D0D8
:100AA0005DF8040B704700BF8446104662468C46D2
:100AB0001946634600E000BF01B5FFF7B7FF002805
:100AC00048BF10F1000F01BD4DF808EDFFF7F4FF2E
:100AD0000CBF012000205DF808FB00BF4DF808EDB9
:100AE000FFF7EAFF34BF012000205DF808FB00BFDC
:100AF0004DF808EDFFF7E0FF94BF012000205DF8FE
:100B000008FB00BF4DF808EDFFF7CEFF94BF0120B2
:100B100000205DF808FB00BF4DF808EDFFF7C4FFAB
:100B200034BF012000205DF808FB00BF4FEA410CF4
:100B30007FEA6C5C02D150EA013C0AD14FEA430CD7
:100B40007FEA6C5C02D152EA033C02D14FF0000014
:100B500070474FF0010070474FEA410212F5001252
:100B600015D211D56FF47873B3EB625212D94FEAF4
:100B7000C12343F0004343EA505311F0004F23FADE
:100B800002F018BF404270474FF00000704750EA33
:100B9000013005D111F0004008BF6FF000407047F0
:100BA0004FF00000704700BF4A0011D212F500124A
:100BB00011D20DD56FF47873B3EB62520ED44FEAB5
:100BC000C12343F0004343EA505323FA02F0704735
:100BD0004FF00000704750EA013002D14FF0FF3073
:100BE00070474FF0000070474FEA4102B2F1E04316
:100BF00024BFB3F5001CDCF1FE5C0DD901F0004C04
:100C00004FEAC0024CEA5070B2F1004F40EB830053
:100C100008BF20F00100704711F0804F21D113F17F
:100C20003872BCBF01F00040704741F480114FEAB8
:100C30005252C2F11802C2F1200C10FA0CF320FA41
:100C400002F018BF40F001004FEAC1234FEAD3235E
:100C500003FA0CFC40EA0C0023FA02F34FEA4303C8
:100C6000CCE77FEA625307D150EA01331EBF4FF051
:100C7000FE4040F44000704701F0004040F0FE406C
:100C800040F40000704700BF80F0004002E000BF69
:100C900081F0004142001FBF5FEA410392EA030F67
:100CA0007FEA226C7FEA236C6AD04FEA1262D2EBB1
:100CB0001363C1BFD218414048404140B8BF5B42B6
:100CC000192B88BF704710F0004F40F4000020F04F
:100CD0007F4018BF404211F0004F41F4000121F065
:100CE0007F4118BF494292EA030F3FD0A2F10102AF
:100CF00041FA03FC10EB0C00C3F1200301FA03F1ED
:100D000000F0004302D5494260EB4000B0F5000F0F
:100D100013D3B0F1807F06D340084FEA310102F1CE
:100D20000102FE2A51D2B1F1004F40EBC25008BF80
:100D300020F0010040EA03007047490040EB00004A
:100D4000013A28BFB0F5000FEDD2B0FA80FCACF14B
:100D5000080CB2EB0C0200FA0CF0AABF00EBC25078
:100D600052421843BCBFD0401843704792F0000F66
:100D700081F4000106BF80F400000132013BB5E7B9
:100D80004FEA41037FEA226C18BF7FEA236C21D02F
:100D900092EA030F04D092F0000F08BF0846704794
:100DA00090EA010F1CBF0020704712F07F4F04D162
:100DB000400028BF40F00040704712F100723CBF75
:100DC00000F50000704700F0004343F0FE4040F49F
:100DD000000070477FEA226216BF08467FEA23635D
:100DE0000146420206BF5FEA412390EA010F40F448
:100DF000800070474FF0000304E000BF10F0004394
:100E000048BF40425FEA000C08BF704743F096437A
:100E100001464FF000001CE050EA010208BF704795
:100E20004FF000030AE000BF50EA010208BF70471C
:100E300011F0004302D5404261EB41015FEA010C31
:100E400002BF84460146002043F0B64308BFA3F129
:100E50008053A3F50003BCFA8CF2083AA3EBC2530B
:100E600010DB01FA02FC634400FA02FCC2F120022A
:100E7000BCF1004F20FA02F243EB020008BF20F061
:100E80000100704702F1200201FA02FCC2F12002C7
:100E900050EA4C0021FA02F243EB020008BF20EABC
:100EA000DC7070474FF0FF0C1CEAD0521EBF1CEAEA
:100EB000D15392EA0C0F93EA0C0F6FD01A4480EAD8
:100EC000010C400218BF5FEA41211ED04FF00063C1
:100ED00043EA501043EA5111A0FB01310CF00040ED
:100EE000B1F5000F3EBF490041EAD3715B0040EA13
:100EF000010062F17F02FD2A1DD8B3F1004F40EBE3
:100F0000C25008BF20F00100704790F0000F0CF0B5
:100F1000004C08BF49024CEA502040EA51207F3A79
:100F2000C2BFD2F1FF0340EAC250704740F4000054
:100F30004FF00003013A5DDC12F1190FDCBF00F045
:100F400000407047C2F10002410021FA02F1C2F1F3
:100F5000200200FA02FC5FEA310040F1000053EA8F
:100F60004C0308BF20EADC70704792F0000F00F0DD
:100F7000004C02BF400010F4000F013AF9D040EAE3
:100F80000C0093F0000F01F0004C02BF490011F477
:100F9000000F013BF9D041EA0C018FE70CEAD15375
:100FA00092EA0C0F18BF93EA0C0F0AD030F0004CF5
:100FB00018BF31F0004CD8D180EA010000F00040A9
:100FC000704790F0000F17BF90F0004F084691F067
:100FD000000F91F0004F14D092EA0C0F01D14202A1
:100FE0000FD193EA0C0F03D14B0218BF084608D16A
:100FF00080EA010000F0004040F0FE4040F40000B4
:10100000704740F0FE4040F4400070474FF0FF0C46
:101010001CEAD0521EBF1CEAD15392EA0C0F93EA8D
:101020000C0F69D0A2EB030280EA010C49024FEADF
:10103000402037D04FF0805343EA111143EA101398
:101040000CF000408B4238BF5B0042F17D024FF450
:10105000000C8B4224BF5B1A40EA0C00B3EB510F2B
:1010600024BFA3EB510340EA5C00B3EB910F24BF14
:10107000A3EB910340EA9C00B3EBD10F24BFA3EB99
:10108000D10340EADC001B0118BF5FEA1C1CE0D161
:10109000FD2A3FF650AF8B4240EBC25008BF20F014
:1010A000010070470CF0004C4CEA50207F32C2BF68
:1010B000D2F1FF0340EAC250704740F400004FF005
:1010C0000003013A37E792F0000F00F0004C02BF36
:1010D000400010F4000F013AF9D040EA0C0093F000
:1010E000000F01F0004C02BF490011F4000F013B5A
:1010F000F9D041EA0C0195E70CEAD15392EA0C0FC2
:1011000008D142027FF47DAF93EA0C0F7FF470AFF9
:10111000084676E793EA0C0F04D14B023FF44CAF3C
:1011200008466EE730F0004C18BF31F0004CCAD1D1
:1011300030F000427FF45CAF31F000437FF43CAF0D
:101140005FE700BF4FF0FF3C06E000BF4FF0010C2F
:1011500002E000BF4FF0010C4DF804CD4FEA400211
:101160004FEA41037FEA226C18BF7FEA236C11D05B
:1011700001B052EA530C18BF90EA010F58BFB2EB0E
:10118000030088BFC81738BF6FEAE17018BF40F08E
:10119000010070477FEA226C02D15FEA402C05D142
:1011A0007FEA236CE4D15FEA412CE1D05DF8040BC7
:1011B000704700BF844608466146FFE70FB5FFF75A
:1011C000C9FF002848BF10F1000F0FBD4DF808ED12
:1011D000FFF7F4FF0CBF012000205DF808FB00BF03
:1011E0004DF808EDFFF7EAFF34BF012000205DF85D
:1011F00008FB00BF4DF808EDFFF7E0FF94BF0120AA
:1012000000205DF808FB00BF4DF808EDFFF7D2FFA6
:1012100094BF012000205DF808FB00BF4DF808EDE9
:10122000FFF7C8FF34BF012000205DF808FB00BFB6
:1012300038B505460C462846214600220023FFF714
:101240004DFC28B928462146BDE8384000F00AB8D0
:10125000284604F1004100F005F8404261EB4101ED
:1012600038BD00BFD0B50C4B002206460F46FFF735
:10127000C3F9FFF799FC0446FFF744F9074B002236
:10128000FFF7BAF902460B4630463946FEF7FCFF37
:10129000FFF78AFC2146D0BD0000F03D0000F04180
:1012A000DFF834D0002103E00C4B5B58435004318D
:1012B0000B480C4B42189A42F6D30B4A02E000232B
:1012C00042F8043B094B9A42F9D301F04DFC04F07B
:1012D00087FD00F08DFEFEE70000012060D50008CC
:1012E00000000020E0010020E00100204C1F002051
:1012F000FEE7000080B586B002AF0346FB71012314
:10130000FB60FB7903F00F03FB72FB791B09BB72D7
:10131000BB7A1B015BB243F00C035BB2DBB27B72A6
:1013200007F109026423009301234E21244803F0AE
:101330008BF9FB68184601F097FCBB7A1B015BB286
:1013400043F008035BB2DBB27B7207F1090264234E
:10135000009301234E211A4803F076F9FB681846E2
:1013600001F082FCFB7A1B015BB243F00C035BB221
:10137000DBB27B7207F109026423009301234E2143
:101380000F4803F061F9FB68184601F06DFCFB7A29
:101390001B015BB243F008035BB2DBB27B7207F167
:1013A00009026423009301234E21054803F04CF900
:1013B000FB68184601F058FC00BF1037BD4680BDE1
:1013C000301E002080B586B002AF0346FB710123BA
:1013D000FB60FB7903F00F03FB72FB791B09BB7207
:1013E000BB7A1B015BB243F00D035BB2DBB27B72D5
:1013F00007F109024FF0FF33009301234E212648E5
:1014000003F022F9FB68184601F02EFCBB7A1B01A1
:101410005BB243F009035BB2DBB27B7207F10902F6
:101420004FF0FF33009301234E211B4803F00CF9CA
:10143000FB68184601F018FCFB7A1B015BB243F015
:101440000D035BB2DBB27B7207F109024FF0FF3391
:10145000009301234E21104803F0F6F8FB6818466C
:1014600001F002FCFB7A1B015BB243F009035BB2A3
:10147000DBB27B7207F109024FF0FF3300930123C7
:101480004E21054803F0E0F8FB68184601F0ECFB3C
:1014900000BF1037BD4680BD301E002080B584B02F
:1014A00000AF786039607B681B885BB23B737B68F8
:1014B0001B881B0A9BB25BB27B733B6893F90130BC
:1014C0003B723B6893F900307B7207F1080107F12A
:1014D0000C030222184605F03FFB0346002B01D007
:1014E000012300E0002318461037BD4680BD0000F0
:1014F00080B500AF962001F0B7FB3320FFF7FAFE6E
:101500003220FFF7F7FE2820FFF7F4FE074B0F22EB
:101510001A70064B1B781846FFF7ECFE0120FFF708
:10152000E9FE0620FFF7E6FE00BF80BD2C1E00206E
:1015300080B584B000AF78600023FB730023BB81CB
:101540000023FB724DE00023BB7223E0BB89FA7AD3
:1015500079680A4492F9002013431B021AB2FB7AFD
:10156000013379680B4493F900301BB2DBB21BB234
:1015700013431BB2BB81BB7A204A32F81330BA89BD
:101580009A4202D10123FB7307E00023BB81BB7A9F
:101590000133BB72BB7A072BD8D9BB891B0A9BB21C
:1015A0005BB23B72BB895BB27B72FB7B002B09D1C8
:1015B000FB7A7A68134493F90030DBB21846FFF7E0
:1015C00001FF09E007F10803184600F05FF8002367
:1015D000FB73FB7A0133FB720023BB81FB7A01337F
:1015E000FB72FB7A7A68134493F90030002BAAD17E
:1015F00000BF00BF1037BD4680BD00BF7C1E00206D
:1016000080B584B000AF03460A46FB711346BB7138
:10161000BB79013BDBB203F00F03FB73FB79012BBA
:1016200008D1FB7B63F07F03FB73FB7B1846FFF75E
:1016300061FE07E0FB7B63F03F03FB73FB7B184617
:10164000FFF758FE00BF1037BD4680BD80B500AF24
:10165000064B1B7823F00203DAB2044B1A70034BDB
:101660001B781846FFF746FE00BF80BD2C1E0020E9
:1016700080B500AF044B1B7823F00103DBB21846A2
:10168000FFF738FE00BF80BD2C1E002080B584B05F
:1016900000AF78600023FB7313E0FB7B5B000D4A17
:1016A000134479681846FFF7F9FE0346002B04D16E
:1016B000FB7B1846FFF786FE00E000BFFB7B013393
:1016C000FB73FB7B072BE8D900BF00BF1037BD467B
:1016D00080BD00BF7C1E002090B589B000AFF860CF
:1016E000B9607A60BB681A687B681B681946104647
:1016F000FFF7D0FA03463B61BB685A687B685B68BA
:1017000019461046FFF7C6FA03467B6107F110033E
:10171000184600F085F8FB681C4607F110030FCB54
:1017200084E80F00F8682437BD4690BD0000000033
:1017300090B589B000AFF860B9607A60BB689A680C
:101740007B689B6819461046FFF7ACFB0346BB61FC
:10175000BB68DA687B68DB6819461046FFF79AFABF
:101760000346FB61FB691846FEF7EEFE26A3D3E9AC
:101770000023FFF7D1F90346002B15D0FB6918466B
:10178000FEF7E2FE02460B4621A1D1E90001FEF779
:101790007BFD02460B4610461946FFF725FA034625
:1017A00083F00043FB611CE0FB691846FEF7CCFEAA
:1017B00019A3D3E90023FFF791F90346002B10D0BA
:1017C000FB691846FEF7C0FE11A3D3E90023FEF71C
:1017D0005DFD02460B4610461946FFF705FA034623
:1017E000FB6107F11003184600F01AF9FB681C466C
:1017F00007F110030FCB84E80F00F8682437BD46CB
:1018000090BD00BFAFF3008050455254FB2109400A
:1018100050455254FB21194050455254FB2109C0F8
:10182000B0B582B000AF78607B681B681846FEF7E1
:101830008BFE4FF000024FF0804309F04DF9044653
:101840000D467B685B681846FEF77EFE4FF000028F
:101850004FF0804309F040F902460B4620462946E6
:10186000FEF714FD02460B461046194609F0F4F93E
:1018700002460B4610461946FFF7B6F902467B684A
:101880009A607B681B684FF000011846FFF7C6FCA2
:101890000346002B41D07B685B684FF0000118467F
:1018A000FFF7B2FC0346002B1BD07B685A687B68AD
:1018B0001B6819461046FFF7A9FB03461846FEF7BA
:1018C00043FE02460B461046194608F0A9FE0246A2
:1018D0000B4610461946FFF787F902467B68DA6027
:1018E00091E07B685A687B681B6819461046FFF7D1
:1018F0008DFB03461846FEF727FE02460B461046B0
:10190000194608F08DFE02460B4610461946FFF7B1
:101910006BF902467B68DA6075E07B681B684FF004
:1019200000011846FFF75CFC0346002B4BD07B6898
:101930005B684FF000011846FFF766FC0346002B7A
:1019400020D07B685A687B681B6819461046FFF7F1
:101950005DFB03461846FEF7F7FD02460B461046B0
:10196000194608F05DFE2AA3D3E90023FEF78EFC9A
:1019700002460B4610461946FFF736F902467B68C9
:10198000DA6040E07B685A687B681B68194610463D
:10199000FFF73CFB03461846FEF7D6FD02460B4612
:1019A0001046194608F03CFE19A3D3E90023FEF7C0
:1019B0006BFC02460B4610461946FFF715F9024626
:1019C0007B68DA601FE07B685B684FF000011846B7
:1019D000FFF724FC0346002B03D07B680E4ADA6035
:1019E00011E07B685B684FF000011846FFF7F8FBD9
:1019F0000346002B03D07B68084ADA6003E07B686B
:101A00004FF00002DA6000BF0837BD46B0BD00BF2E
:101A100050455254FB210940DB0FC93FDB0FC9BFC2
:101A2000B0B582B000AF78607B689B681846FEF75F
:101A30008BFD04460D467B68DB681846FEF784FD87
:101A400002460B461046194608F094FF02460B4624
:101A500020462946FEF7D0FD02460B4610461946A1
:101A6000FFF7C2F802467B681A607B689B681846DD
:101A7000FEF76AFD04460D467B68DB681846FEF7F4
:101A800063FD02460B461046194608F0CDFF02469C
:101A90000B4620462946FEF7AFFD02460B46104690
:101AA0001946FFF7A1F802467B685A607868FFF78D
:101AB000B7FE00BF0837BD46B0BD80B582B000AFED
:101AC00078607B681B684FF000011846FFF77EFBCB
:101AD0000346002B1DD07B685B684FF00001184661
:101AE000FFF774FB0346002B13D07B689B684FF015
:101AF00000011846FFF76AFB0346002B09D07B68FC
:101B0000DB684FF000011846FFF760FB0346002B2F
:101B100030D17B681B684FF000011846FFF756FB79
:101B20000346002B09D07B685B684FF00001184624
:101B3000FFF74CFB0346002B03D17868FFF770FEDC
:101B400018E07B689B684FF000011846FFF73EFBEA
:101B50000346002B0AD07B68DB684FF00001184673
:101B6000FFF734FB0346002B00D003E07868FFF753
:101B700057FFFFE700BF0837BD4680BD00000000EB
:101B800090B5ADF5E35D83B000AF07F12803143BDA
:101B9000186007F5E25303F10C030121184600F029
:101BA00087F94FF4E171C04800F082F907F128038A
:101BB0000C3B4FF4E171184600F07AF907F5E15358
:101BC00003F11C030121184600F072F9002307F508
:101BD000E35202F10402136048E14FF0000307F5FD
:101BE000E15202F11C0213604FF0000307F5E252CC
:101BF0001360AE4B07F5E25202F10402136007F5E1
:101C0000E35303F104031868FEF77CFCA0A3D3E9B7
:101C10000023FEF7F1FC02460B4610461946FEF77C
:101C2000E3FF034607F5E25202F10802136007F5ED
:101C3000E15303F11C031846FFF73FFF07F5E35399
:101C400003F104031868FEF75DFC93A3D3E90023B6
:101C5000FEF7D2FC02460B461046194690A3D3E984
:101C60000023FEF7F3FD02460B461046194608F026
:101C700081FE02460B46FEF709FB02460B46104664
:101C80001946FEF7B1FF034607F5E25202F11C02C6
:101C9000136007F12803143B1B681C684FF0000118
:101CA00007F5E25303F11C031868FFF7FBF803463E
:101CB00019462046FEF7EEFF03461A4607F12803B1
:101CC0000C3B1A6007F128030C3B1846FFF7F5FEA2
:101CD00007F12803143B1B6804331C6807F1280331
:101CE0000C3B1B6807F5E25202F11C021168184612
:101CF000FFF7D8F8034619462046FEF7CBFF034608
:101D00001A4607F128030C3B1A6107F128030C3B24
:101D100010331846FFF7D1FE022307F5E352136094
:101D20004CE007F5E3531B689A0007F12803143BC6
:101D30001B6813441C6807F5E3531B685A1E07F120
:101D400028030C3B120113441B6807F5E25202F111
:101D50001C0211681846FFF7A5F8034619462046ED
:101D6000FEF798FF0346184607F5E3531B689A1ED3
:101D700007F128030C3B120113441B681946FEF7B8
:101D800087FF0346194607F128030C3B07F5E3528A
:101D9000126812011344196007F128030C3B07F580
:101DA000E3521268120113441846FFF786FE07F546
:101DB000E3531B68013307F5E352136007F5E35360
:101DC0001B68B3F5E17FACD307F10800083807F1D1
:101DD00028030C3B03F5E05207F5E15303F11C0324
:101DE0001946FFF7A5FC07F10803083B07F5E25485
:101DF00004F10C040FCB84E80F002B4A07F5E353E2
:101E000003F104031B681B01D41807F1080008380C
:101E100007F5E25202F10C0207F128030C3B03F52F
:101E2000E05310331946FFF757FC07F10803083B4E
:101E30000FCB84E80F0007F5E25303F10C030121F7
:101E4000184600F035F807F128030C3B4FF4E17118
:101E5000184600F02DF807F5E35303F104031B685F
:101E6000013307F5E35202F10402136007F5E3536F
:101E700003F104031B681F2B7FF6AFAE0A4800F086
:101E80004BF8094B184607F5E3570C37BD4690BD94
:101E90004F6BC70371988CBF50455254FB211940BA
:101EA0000000000000207C40FC010020000080BFFA
:101EB00080B485B000AF786039600023FB601EE01D
:101EC000FB681B017A6813444FF000021A60FB683C
:101ED0001B017A6813444FF000025A60FB681B0133
:101EE0007A6813444FF000029A60FB681B017A681D
:101EF00013444FF00002DA60FB680133FB60FA68BC
:101F00003B689A42DCD300BF00BF1437BD4680BC9B
:101F1000704700000000000090B585B000AF786009
:101F20000023FB6050E0FB68002B0ED1FB681B0117
:101F30007A6813449868FB681B017A68D4182A49A8
:101F4000FFF764F80346A36026E0FB681B017A688C
:101F500013449868FB681B017A68D4182349FFF77B
:101F600055F80346A360FB681B017A6813449B681D
:101F70001846FEF7E9FA1AA3D3E90023FEF766FC38
:101F800002460B4610461946FB681B017A68D418B6
:101F9000FEF72AFE0346A360FB681B017A68134420
:101FA0004FF000021A60FB681B017A6813444FF07F
:101FB00000025A60FB681B017A6813441846FFF759
:101FC0007CFDFB680133FB60FB68B3F5E17FAAD3BE
:101FD00000BF00BF1437BD4690BD00BFAFF3008007
:101FE000CD3B7F669EA0F63F0000E14300006143C9
:101FF000B0B5ADF50D5D8EB000AF4FF0000307F545
:102000000D5202F11C0213604FF0000307F50D5250
:1020100002F1340213604FF0000307F50D5202F194
:1020200018021360AF4B07F50D5202F11402136052
:1020300000F0C6FD00F056FA00F0F0FB00F0D0FB17
:1020400000F084FB00F0E0FAFFF752FAFFF7FEFA27
:10205000FFF70EFB4FF0000307F50D5202F13402BB
:102060001360002307F50D5202F13002136021E0E6
:1020700007F13803383B07F50D5202F130021268C0
:10208000D200134404221946974801F0FDF800BF1E
:10209000964B1B78002BFBD0944B00221A7007F54F
:1020A0000D5303F130031B68013307F50D5202F1A4
:1020B0003002136007F50D5303F130031B68B3F5CD
:1020C000E17FD5D307F50D5303F114031B681B887B
:1020D0001846FEF793FE034685491846FEF7E2FED2
:1020E00003461C4607F13803383BB3F80E3E18464A
:1020F000FEF784FE034619462046FEF787FF034697
:1021000007F50D5202F110021360002307F50D527E
:1021100002F12C02136033E007F13802383A07F578
:102120000D5303F12C031B68DB0013445B88184636
:10213000FEF764FE034607F50D5202F11002116826
:102140001846FEF7AFFE03466A491846FEF75EFFE3
:102150000346194607F5A85303F1180307F50D5276
:1021600002F12C02126843F8221007F50D5303F117
:102170002C031B68013307F50D5202F12C0213608A
:1021800007F50D5303F12C031B68B3F5E17FC3D3AF
:10219000002307F50D5202F1280213603CE007F11D
:1021A0003803383B07F50D5202F12802126833F864
:1021B00032301846FEF722FE034607F50D5202F1B3
:1021C000100211681846FEF76DFE0346494918468D
:1021D000FEF71CFF03461A4607F5A85303F1180340
:1021E000D3F8043719461046FEF752FD0346194648
:1021F00007F5E15307F50D5202F12802126843F882
:10220000221007F50D5303F128031B68013307F56E
:102210000D5202F12802136007F50D5303F1280354
:102220001B68B3F5E17FBAD3002307F50D5202F125
:102230002402136032E007F13802383A07F50D53F3
:1022400003F124031B68DB001344DB881846FEF708
:10225000D5FD034607F50D5202F11002116818462C
:10226000FEF720FE034623491846FEF7CFFE03463D
:10227000194607F61863083B07F50D5202F12402D0
:10228000126843F8221007F50D5303F124031B686D
:10229000013307F50D5202F12402136007F50D53C7
:1022A00003F124031B68B3F5E17FC4D307F5E153C1
:1022B0001846FFF765FC07F50D5303F10C03186092
:1022C00007F50D5303F10C031B689B6807F50D52CE
:1022D00002F11C021360012307F50D5202F12302E3
:1022E000137045E0AA75FF1F8C1E00201C1E0020E5
:1022F0000000404000F07F4507F50D5303F1340323
:102300001868FEF721F904460D4607F50D5303F151
:1023100023031B781B0107F50D5202F10C02126812
:1023200013449B681846FEF70FF94FF000024FF078
:10233000804308F0D1FB02460B4620462946FDF7B4
:10234000A5FF02460B4610461946FEF74DFC034614
:1023500007F50D5202F13402136007F50D5303F136
:1023600023031B78013307F50D5202F1230213708A
:1023700007F50D5303F123031B781F2BBCD907F579
:102380000D5303F134031868FEF7DEF802460B46DE
:102390001046194608F060FC02460B4610461946E6
:1023A000FEF722FC034607F50D5202F134021360DA
:1023B00007F50D5303F10C031B6810339B6807F5F9
:1023C0000D5202F1340211681846FEF71FFE034653
:1023D00007F50D5202F1180213603D4907F50D5340
:1023E00003F11C031868FEF711FE03461846FEF7BA
:1023F000ABF835A3D3E90023FEF728FA02460B46D3
:10240000104619464FF00002324BFEF7F5F802462F
:102410000B4607F50D50304904F07EFB2C4907F5BB
:102420000D5303F134031868FEF7F0FD0346184618
:10243000FEF78AF824A3D3E90023FEF707FA024641
:102440000B46104619464FF00002224BFEF7D4F817
:1024500002460B4607F50C5000F134001F4904F00A
:102460005BFB07F50D5303F118031868FEF76CF8D2
:1024700002460B4607F50C5000F12800184904F0FD
:102480004BFB07F50D531846FFF752F801210220C8
:10249000FFF7B6F807F50C5303F134031846FFF7BE
:1024A00047F809210120FFF7ABF807F50C5303F1BA
:1024B00028031846FFF73CF801210120FFF7A0F898
:1024C000C8E500BFAFF300801F85EB51B81ED53FB4
:1024D0000000C84200408F4088CD000890CD000821
:1024E0009CCD000880B5ACB000AF1023FB66012383
:1024F000C7F884300023C7F888306023C7F88C30D1
:102500000223C7F894300123C7F898300123C7F895
:102510009C301023C7F8A0300723C7F8A43002234B
:10252000C7F8A8300223C7F8AC3007F16C0318468F
:1025300002F0E6FB0346002B03D0FC21304800F0FC
:10254000FBF90F23BB650323FB6500233B660023D8
:102550007B660023BB6607F158030121184602F091
:1025600075FF0346002B04D04FF48571244800F01A
:10257000E3F944F240037B6000233B634FF0805358
:10258000FB640123BB600123FB6010233B61072335
:102590007B610223BB610223FB614FF080733B62CE
:1025A0003B1D184603F036F90346002B04D040F2D9
:1025B0001911134800F0C0F94FF4007002F04CFB01
:1025C0000346002B04D04FF490710D4800F0B4F98D
:1025D00003F0B6F803460B4AA2FB03239B091846F7
:1025E00001F00DFC042001F017FC002200214FF047
:1025F000FF3001F0DAFB00BFB037BD4680BD00BF41
:10260000A4CD0008D34D621080B586B000AF474B13
:10261000474A1A60454B00225A60444B00229A6098
:10262000424B0022DA60414B01221A613F4B0422E7
:102630005A613E4B00221A763C4B00225A763B4BA5
:102640000422DA61394B002283F82020374B002224
:102650009A62364B0022DA62344B002283F8302033
:10266000324B00225A63314B002283F838202F4826
:1026700000F0C4FC0346002B04D04FF4A4712D4895
:1026800000F05AF92C4B3B6006237B600523BB60AE
:102690007F23FB6004233B6100237B613B4619469B
:1026A000224800F07FFE0346002B04D040F2551173
:1026B000204800F041F9214B3B600C237B603B46F6
:1026C00019461A4800F06EFE0346002B04D04FF462
:1026D000AF71184800F030F9194B3B6012237B6052
:1026E000184BFB603B461946104800F05BFE034662
:1026F000002B04D04FF4B4710E4800F01DF9124BBA
:102700003B6018237B607F23FB603B4619460748EC
:1027100000F048FE0346002B04D04FF4B971054881
:1027200000F00AF900BF1837BD4680BD8C1E00209E
:1027300000000450A4CD00082000F014400020192F
:102740008000501D00007F400100008080B500AF78
:102750001F4B204A1A601E4B1F4A5A601C4B002216
:102760009A601B4B0122DA60194B00221A61184B48
:1027700000225A61164B00229A61154B0022DA6141
:10278000134B00221A62124801F0CEFE0346002BC2
:1027900004D04FF4C371114800F0CEF800210C486A
:1027A00002F0B8F90346002B04D040F28D110B481B
:1027B00000F0C2F80021064802F0F6F90346002BAB
:1027C00004D04FF4CA71054800F0B6F800BF80BDD0
:1027D000301E002000540040BB7C7000A4CD0008D7
:1027E00080B582B000AF0C4B9B6C0B4A43F00103E9
:1027F0009364094B9B6C03F001037B607B680022B0
:1028000000210B2001F0D1FA0B2001F0EAFA00BF01
:102810000837BD4680BD00BF0010024080B58AB0B9
:1028200000AF334BDB6C324A43F00403D364304BCC
:10283000DB6C03F004033B613B692D4BDB6C2C4AE2
:1028400043F00103D3642A4BDB6C03F00103FB600C
:10285000FB68274BDB6C264A43F00203D364244B0E
:10286000DB6C03F00203BB60BB68214BDB6C204ACE
:1028700043F08003D3641E4BDB6C03F080037B606A
:102880007B684FF440437B610323BB610023FB6102
:1028900007F114031946174801F0DCFC49F6F01360
:1028A0007B610323BB610023FB6107F1140319461D
:1028B0004FF0904001F0CEFCFB237B610323BB6112
:1028C0000023FB6107F1140319460B4801F0C2FC19
:1028D00008237B610323BB610023FB6107F1140321
:1028E0001946064801F0B6FC00BF2837BD4680BD3A
:1028F000001002400008004800040048001C004886
:1029000080B483B000AF7860034B01221A7000BF1F
:102910000C37BD4680BC70471C1E002080B483B0BD
:1029200000AF7860034B02221A7000BF0C37BD461F
:1029300080BC70471C1E002080B483B000AF78605C
:102940003960FEE780B582B000AF244B1B6E234A8E
:1029500043F001031366214B1B6E03F001037B6000
:102960007B681E4B9B6D1D4A43F0805393651B4B48
:102970009B6D03F080533B603B68032001F00AFA33
:10298000002200216FF00B0001F00FFA002200215D
:102990006FF00A0001F009FA002200216FF009002F
:1029A00001F003FA002200216FF0040001F0FDF9AC
:1029B000002200216FF0030001F0F7F9002200214E
:1029C0006FF0010001F0F1F9002200214FF0FF301B
:1029D00001F0EBF900BF0837BD4680BD0010024092
:1029E00080B588B000AF78607B681B68264A934248
:1029F00045D1264BDB6C254A43F40053D364234B6B
:102A0000DB6C03F40053BB60BB680F23FB600B233C
:102A10003B6100237B6107F10C0319464FF09040A6
:102A200001F018FC1A4B1B4A1A60194B00225A601D
:102A3000174B00229A60164B0022DA60144B80225A
:102A40001A61134B4FF480725A61114B4FF480623C
:102A50009A610F4B0022DA610D4B00221A620C487A
:102A600001F002FA0346002B03D076210A48FFF753
:102A700063FF7B68064ADA64054A7B68936200BF9D
:102A80002037BD4680BD00BF00000450001002404A
:102A9000F01E002008000240B4CD000880B588B0C8
:102AA00000AF78607B681B68124A93421DD14FF4D7
:102AB000C063FB6012233B6101237B610323BB6185
:102AC0000423FB6107F10C0319464FF0904001F01D
:102AD000C1FB094B9B6D084A43F400139365064BF9
:102AE0009B6D03F40013BB60BB6800BF2037BD467D
:102AF00080BD00BF005400400010024080B400AF11
:102B000000BFBD4680BC704780B400AFFEE780B414
:102B100000AFFEE780B400AFFEE780B400AFFEE791
:102B200080B400AF00BFBD4680BC704780B400AF2A
:102B300000BFBD4680BC704780B400AF00BFBD463B
:102B400080BC704780B500AF00F076F801F080F9E6
:102B500000BF80BD80B500AF024801F09DFA00BF04
:102B600080BD00BFF01E002080B400AF124B1B6878
:102B7000114A43F0010313600F4B00229A600E4B81
:102B80001B680D4A23F0A85323F4102313600A4B4B
:102B90004FF48052DA60084B1B68074A23F4802305
:102BA0001360054B00229A61044B4FF000629A605B
:102BB00000BFBD4680BC70470010024000ED00E041
:102BC00080B582B000AF0023FB71032001F0E2F872
:102BD000002000F00DF80346002B02D00123FB710A
:102BE00001E0FFF7AFFEFB7918460837BD4680BD10
:102BF00080B584B000AF78600023FB730C4B1B687A
:102C00000C4AA2FB03239B09184601F0F8F803467F
:102C1000002B02D00123FB7305E0002279684FF0FE
:102C2000FF3001F0C2F8FB7B18461037BD4680BD6F
:102C300000000020D34D621080B400AF044B1B682D
:102C40000133034A136000BFBD4680BC704700BF1C
:102C5000381F002080B400AF024B1B681846BD46E9
:102C600080BC7047381F002080B584B000AF78600A
:102C7000FFF7F0FFB8607B68FB60FB68B3F1FF3FD4
:102C800002D0FB680133FB6000BFFFF7E3FF0246A1
:102C9000BB68D31AFA689A42F7D800BF00BF103752
:102CA000BD4680BD80B483B000AF786039607B687A
:102CB0009B6823F47C123B681A437B689A6000BFD0
:102CC0000C37BD4680BC704780B483B000AF7860DD
:102CD00039607B689B6823F0E0723B681A437B682D
:102CE0009A6000BF0C37BD4680BC704780B483B08B
:102CF00000AF78607B689B6803F0E07318460C3780
:102D0000BD4680BC7047000090B484B000AFF8604E
:102D1000B9607A603B60FB6860331A46BB689B0011
:102D200013441C462268084B13407A6802F0F841AD
:102D30003A680A43134343F00043236000BF10374F
:102D4000BD4690BC704700BF00F0FF0390B482B056
:102D500000AF786039607B6860331A463B689B003F
:102D600013441C46236803F0F84318460837BD4651
:102D700090BC704790B484B000AFF860B9607A60DE
:102D8000FB6860331A46BB689B0013441C462368EB
:102D900023F000427B681343236000BF1037BD4619
:102DA00090BC704780B483B000AF78607B68DB680C
:102DB00003F44063002B01D1012300E000231846F7
:102DC0000C37BD4680BC704790B484B000AFF8604B
:102DD000B9607A60FB6830331A46BB681B0A9B00F7
:102DE00003F00C0313441C462268BB6803F01F0366
:102DF0001F2101FA03F3DB431A407B689B0E03F0AB
:102E00001F01BB6803F01F0301FA03F313432360A0
:102E100000BF1037BD4690BC704790B484B000AF7F
:102E2000F860B9607A60FB6814331A46BB685B0EC1
:102E30009B0003F0040313441C462268BB681B0D6F
:102E400003F01F03072101FA03F3DB431A40BB68B9
:102E50001B0D03F01F03796801FA03F3134323608A
:102E600000BF1037BD4690BC7047000080B485B0ED
:102E700000AFF860B9607A60FB68D3F8B020BB6837
:102E8000C3F31203DB431A407B6803F018030749BE
:102E9000D940BB680B40C3F312031A43FB68C3F865
:102EA000B02000BF1437BD4680BC7047FFFF07004D
:102EB00080B483B000AF78607B689B6823F02043C8
:102EC00023F03F037A68936000BF0C37BD4680BC97
:102ED000704780B483B000AF78607B689B6803F074
:102EE0000053B3F1005F01D1012300E00023184635
:102EF0000C37BD4680BC704780B483B000AF7860AB
:102F00007B689B6823F0104323F03F0343F080521B
:102F10007B689A6000BF0C37BD4680BC704780B4A8
:102F200083B000AF78607B689B6803F08053B3F197
:102F3000805F01D1012300E0002318460C37BD4615
:102F400080BC704780B483B000AF78607B689B68BA
:102F500023F0004323F03F0343F001027B689A60B3
:102F600000BF0C37BD4680BC704780B483B000AF53
:102F700078607B689B6803F00103012B01D101237A
:102F800000E0002318460C37BD4680BC704780B473
:102F900083B000AF78607B689B6823F0004323F028
:102FA0003F0343F004027B689A6000BF0C37BD46C4
:102FB00080BC704780B483B000AF78607B689B684A
:102FC00003F00403042B01D1012300E00023184681
:102FD0000C37BD4680BC704780B483B000AF7860CA
:102FE0007B689B6803F00803082B01D1012300E0F4
:102FF000002318460C37BD4680BC704780B588B0AA
:1030000000AF78600023FB770023BB607B68002B58
:1030100001D101232AE17B681B69002B7B685B6D72
:10302000002B09D17868FFF7DBFC7B6800229A65EA
:103030007B68002283F850207B681B681846FFF7E6
:1030400048FF0346002B04D07B681B681846FFF737
:103050002FFF7B681B681846FFF761FF0346002BB4
:1030600013D17B681B681846FFF746FF814B1B682E
:103070009B09814AA2FB03239B09BB6002E0BB685A
:10308000013BBB60BB68002BF9D17B681B6818460D
:10309000FFF745FF0346002B0DD17B685B6D43F0C6
:1030A00010027B685A657B689B6D43F001027B6868
:1030B0009A650123FB777B681B681846FFF77AFF48
:1030C00078617B685B6D03F01003002B40F0C580D6
:1030D0007B69002B40F0C1807B685B6D23F48173BA
:1030E00043F002027B685A657B681B681846FFF74D
:1030F0003CFF0346002B0BD16048FFF736FF034629
:10310000002B05D17B685B6819465D48FFF7CAFD57
:103110007B685B7E5A037B685B6B1A437B68DB686A
:103120001A437B689B681A437B6893F820301B0422
:103130001343BB617B6893F82030012B06D17B6879
:103140005B6A013B5B04BA691343BB617B689B6AA2
:10315000002B09D07B689B6A03F470727B68DB6A82
:103160001343BA691343BB617B681B68DA68454B3C
:1031700013407A681268B9690B43D3607B681B6897
:103180001846FFF717FF38617B681B681846FFF782
:1031900023FFF8603B69002B3DD1FB68002B3AD13F
:1031A0007B681B7E9A037B6893F830305B00134387
:1031B000BB617B681B68DB6823F4804323F0020358
:1031C0007A681268B9690B43D3607B6893F838302A
:1031D000012B18D17B681B681B6923F4FF6323F064
:1031E00004037A68D16B7A68126C11437A68526C66
:1031F00011437A68926C0A431A437B681B6842F059
:1032000001021A6107E07B681B681A697B681B680A
:1032100022F001021A617B681B69012B0CD17B68CB
:103220001B681B6B23F00F017B68DB695A1E7B68F0
:103230001B680A431A6307E07B681B681A6B7B688C
:103240001B6822F00F021A637B685B6D23F0030397
:1032500043F001027B685A6507E07B685B6D43F0D1
:1032600010027B685A650123FB77FB7F18462037E5
:10327000BD4680BD00000020632D3E0500000450C7
:103280000003045007C0F0FF80B586B000AFF860BF
:10329000B9607A60FB681B681846FFF78BFE03462F
:1032A000002B67D1FB6893F85030012B01D102232A
:1032B00063E0FB68012283F85020F86800F0B4FB5B
:1032C0000346FB75FB7D002B4FD1FB685B6D23F440
:1032D000706323F0010343F48072FB685A65FB6856
:1032E0005B6D03F48053002B06D0FB689B6D23F0CD
:1032F0000602FB689A6502E0FB6800229A65FB689B
:10330000DB6C204ADA62FB68DB6C1F4A1A63FB68DD
:10331000DB6C1E4A5A63FB681B681C221A60FB6840
:10332000002283F85020FB681B685A68FB681B6802
:1033300042F010025A60FB681B68DA68FB681B6881
:1033400042F00102DA60FB68D86CFB681B6840330E
:103350001946BA687B6800F03FFE0346FB75FB68C0
:103360001B681846FFF713FE06E0FB68002283F88F
:10337000502001E00223FB75FB7D18461837BD463F
:1033800080BD00BFDD3A0008B53B0008D13B000816
:1033900080B483B000AF786000BF0C37BD4680BCFE
:1033A0007047000080B5A6B000AF78603960002398
:1033B00087F897300023BB607B6893F85030012B6F
:1033C00001D102232BE37B68012283F850207B6824
:1033D0001B681846FFF7EEFD0346002B40F01083F4
:1033E0003B685B68052B24D83B685B68023B032B7A
:1033F0001BD801A252F823F0093400081134000848
:1034000019340008213400083B680C225A6011E08E
:103410003B6812225A600DE03B6818225A6009E0AE
:103420003B684FF480725A6004E03B6806225A60A1
:1034300000E000BF7B6818683B6859683B681B6800
:103440001A46FFF7C1FC7B681B681846FFF7B2FD00
:10345000C7F890007B681B681846FFF7BDFDC7F8EA
:103460008C00D7F89030002B40F04081D7F88C309A
:10347000002B40F03B817B6818683B6819683B680B
:103480009B681A46FFF7C9FC3B685A697B681B6852
:10349000DB68DB0803F003035B0002FA03F3C7F801
:1034A00088303B681B69042B0AD07B6818683B682E
:1034B00019693B681A68D7F88830FFF725FC15E1D1
:1034C0007B681B6800211846FFF740FC0346C3F3E6
:1034D0001203002B0AD17B681B6800211846FFF7F6
:1034E00035FC03469B0E03F01F0211E07B681B684E
:1034F00000211846FFF72AFC0346C7F88030D7F8AA
:10350000803093FAA3F3FB67FB6FB3FA83F31A4699
:103510003B681B68C3F31203002B05D13B681B6893
:103520009B0E03F01F0309E03B681B68BB67BB6F82
:1035300093FAA3F37B677B6FB3FA83F39A4206D1C6
:103540007B681B68002200211846FFF713FC7B688C
:103550001B6801211846FFF7F9FB0346C3F312036A
:10356000002B0AD17B681B6801211846FFF7EEFB90
:1035700003469B0E03F01F020FE07B681B680121CE
:103580001846FFF7E3FB03463B673B6F93FAA3F351
:10359000FB66FB6EB3FA83F31A463B681B68C3F302
:1035A0001203002B05D13B681B689B0E03F01F0321
:1035B00009E03B681B68BB66BB6E93FAA3F37B66AE
:1035C0007B6EB3FA83F39A4206D17B681B680022B4
:1035D00001211846FFF7CEFB7B681B6802211846C5
:1035E000FFF7B4FB0346C3F31203002B0AD17B6839
:1035F0001B6802211846FFF7A9FB03469B0E03F048
:103600001F020FE07B681B6802211846FFF79EFB34
:1036100003463B663B6E93FAA3F3FB65FB6DB3FA7F
:1036200083F31A463B681B68C3F31203002B05D1D2
:103630003B681B689B0E03F01F0309E03B681B6897
:10364000BB65BB6D93FAA3F37B657B6DB3FA83F324
:103650009A4206D17B681B68002202211846FFF7B8
:1036600089FB7B681B6803211846FFF76FFB034645
:10367000C3F31203002B0AD17B681B680321184691
:10368000FFF764FB03469B0E03F01F020FE07B680D
:103690001B6803211846FFF759FB03463B653B6D4A
:1036A00093FAA3F3FB64FB6CB3FA83F31A463B680B
:1036B0001B68C3F31203002B05D13B681B689B0EEC
:1036C00003F01F0309E03B681B68BB64BB6C93FA03
:1036D000A3F37B647B6CB3FA83F39A4206D17B68D5
:1036E0001B68002203211846FFF744FB7B681B6818
:1036F0001846FFF73AFC0346002B40F005817B6833
:1037000018683B6819683B68DB681A46FFF7AEFB30
:103710003B68DB68B14A934240F0F6807B681868EA
:103720003B681B68C3F31203002B0BD13B681B687B
:103730009B0E013303F01F03092B94BF01230023C9
:10374000DBB211E03B681B683B643B6C93FAA3F36C
:10375000FB63FB6BB3FA83F3013303F01F03092B05
:1037600094BF01230023DBB2002B61D03B681B68B0
:10377000C3F31203002B07D13B681B689B0E013378
:103780009B0603F0F8420DE03B681B68BB63BB6B14
:1037900093FAA3F37B637B6BB3FA83F301339B064A
:1037A00003F0F8423B681B68C3F31203002B09D1F6
:1037B0003B681B689B0E013303F01F03012101FAD4
:1037C00003F30FE03B681B683B633B6B93FAA3F387
:1037D000FB62FB6AB3FA83F3013303F01F03012199
:1037E00001FA03F342EA03013B681B68C3F31203C7
:1037F000002B0AD13B681B689B0E013303F01F02AC
:1038000013465B0013441B0510E03B681B68BB625A
:10381000BB6A93FAA3F37B627B6AB3FA83F3013347
:1038200003F01F0213465B0013441B050B4366E0C5
:103830003B681B68C3F31203002B07D13B681B686E
:103840009B0E01339B0603F0F8420DE03B681B68BA
:103850003B623B6A93FAA3F3FB61FB69B3FA83F320
:1038600001339B0603F0F8423B681B68C3F3120365
:10387000002B09D13B681B689B0E013303F01F032B
:10388000012101FA03F30FE03B681B68BB61BB69D0
:1038900093FAA3F37B617B69B3FA83F3013303F0FB
:1038A0001F03012101FA03F342EA03013B681B688D
:1038B000C3F31203002B0DD13B681B689B0E013331
:1038C00003F01F0213465B0013441E3B1B0543F02D
:1038D000007313E03B681B683B613B6993FAA3F3F9
:1038E000FB60FB68B3FA83F3013303F01F02134656
:1038F0005B0013441E3B1B0543F000730B433A6807
:1039000092681946FFF789FA3B681A68344B1340EE
:10391000002B7ED03348FFF7E9F9C7F884003B68F5
:103920001B68314A934226D1D7F8843003F4000350
:10393000002B20D17B681B682C4A934269D1D7F8B1
:10394000843043F4000319462648FFF7BDF9284B9D
:103950001B689B09274AA2FB03239A0913465B00B5
:1039600013449B00BB6002E0BB68013BBB60BB68CB
:10397000002BF9D14DE03B681B681F4A934213D1DD
:10398000D7F8843003F08073002B0DD17B681B685F
:10399000164A93423DD1D7F8843043F080731946DC
:1039A0001048FFF791F934E03B681B68134A9342D3
:1039B0002FD1D7F8843003F48003002B29D17B6802
:1039C0001B680A4A934224D1D7F8843043F4800319
:1039D00019460448FFF778F91BE000BF00007F405C
:1039E0000000088000030450000052C7000004508B
:1039F00000000020632D3E05000084CB0100008004
:103A00007B685B6D43F020027B685A65012387F871
:103A100097307B68002283F8502097F8973018463B
:103A20009837BD4680BD00BF80B584B000AF7860D8
:103A30007B681B681846FFF798FA0346002B46D1AF
:103A40007B681B689A68244B1340002B0DD07B6861
:103A50005B6D43F010027B685A657B689B6D43F099
:103A600001027B689A65012332E07B681B68184677
:103A7000FFF768FAFFF7EEF8F86021E07B681B6853
:103A80001846FFF772FA0346002B04D17B681B68C7
:103A90001846FFF757FAFFF7DDF80246FB68D31A1E
:103AA000022B0DD97B685B6D43F010027B685A6571
:103AB0007B689B6D43F001027B689A65012307E0F8
:103AC0007B681B681B6803F00103012BD6D1002320
:103AD00018461037BD4680BD3F00008080B584B0D9
:103AE00000AF78607B689B6AFB60FB685B6D03F0EE
:103AF0005003002B4BD1FB685B6D43F40072FB68F5
:103B00005A65FB681B681B6803F00803002B21D073
:103B1000FB681B681846FFF745F90346002B32D0B7
:103B2000FB681B68DB6803F40053002B2BD1FB6898
:103B30005B6D23F48072FB685A65FB685B6D03F470
:103B40008053002B1FD1FB685B6D43F00102FB68C3
:103B50005A6518E0FB681B68DB6803F00203002B62
:103B600011D1FB685B6D23F48072FB685A65FB68BA
:103B70005B6D03F48053002B05D1FB685B6D43F054
:103B80000102FB685A65F868FEF7BAFE0EE0FB68B2
:103B90005B6D03F01003002B03D0F868FEF7BEFE48
:103BA00004E0FB68DB6C5B6B7868984700BF1037FC
:103BB000BD4680BD80B584B000AF78607B689B6AED
:103BC000FB60F868FFF7E4FB00BF1037BD4680BD1F
:103BD00080B584B000AF78607B689B6AFB60FB684F
:103BE0005B6D43F04002FB685A65FB689B6D43F0D8
:103BF0000402FB689A65F868FEF790FE00BF103774
:103C0000BD4680BD80B485B000AF78607B6803F0AE
:103C10000703FB600C4BDB68BB60BA684FF6FF0321
:103C20001340BB60FB681A02BB68134343F0BF63D9
:103C300043F40033BB60044ABB68D36000BF143751
:103C4000BD4680BC704700BF00ED00E080B400AF0F
:103C5000044BDB681B0A03F007031846BD4680BC13
:103C6000704700BF00ED00E080B483B000AF0346B2
:103C7000FB71FB7903F01F02064997F907305B09D6
:103C8000012000FA02F241F8232000BF0C37BD46A4
:103C900080BC704700E100E080B483B000AF034611
:103CA0003960FB7197F90730002B0BDA3B68DAB209
:103CB0000C49FB7903F00F03043B1201D2B20B4411
:103CC0001A7609E03B68DAB2074997F90730120122
:103CD000D2B20B4483F8002300BF0C37BD4680BC32
:103CE000704700BF00ED00E000E100E080B489B063
:103CF00000AFF860B9607A60FB6803F00703FB610E
:103D0000FB69C3F10703042B28BF0423BB61FB69D4
:103D10000433062B02D9FB69033B00E000237B61DF
:103D20004FF0FF32BB6902FA03F3DA43BB681A4073
:103D30007B699A404FF0FF317B6901FA03F3D94365
:103D40007B680B40134318462437BD4680BC704740
:103D500080B582B000AF78607B68013BB3F1807FB3
:103D600001D301230FE00A4A7B68013B53600F2116
:103D70004FF0FF30FFF790FF054B00229A60044B95
:103D800007221A60002318460837BD4680BD00BFD1
:103D900010E000E080B582B000AF78607868FFF78F
:103DA00031FF00BF0837BD4680BD80B586B000AF8B
:103DB0000346B9607A60FB7300237B61FFF746FF1F
:103DC00078617A68B9687869FFF790FF024697F9D9
:103DD0000F3011461846FFF75FFF00BF1837BD468A
:103DE00080BD80B582B000AF0346FB7197F9073004
:103DF0001846FFF739FF00BF0837BD4680BD80B5C4
:103E000082B000AF78607868FFF7A2FF03461846DB
:103E10000837BD4680BD000080B483B000AF786035
:103E20007B68042B06D1094B1B68084A43F0040346
:103E3000136005E0054B1B68044A23F0040313607C
:103E400000BF0C37BD4680BC704700BF10E000E0EB
:103E500080B500AF00F002F800BF80BD80B400AFB5
:103E600000BFBD4680BC704780B485B000AF7860AD
:103E70007B68002B01D1012398E07B681B681A4600
:103E80004D4B9A420FD87B681B681A464B4B134424
:103E90004B4AA2FB03231B099A007B685A647B6888
:103EA000484A1A640EE07B681B681A46464B134466
:103EB000434AA2FB03231B099A007B685A647B6870
:103EC000424A1A647B68022283F825207B681B68BB
:103ED0001B68FB60FB6823F4FF4323F07003FB6067
:103EE0007B689A687B68DB681A437B681B691A43A6
:103EF0007B685B691A437B689B691A437B68DB6953
:103F00001A437B681B6A1343FA681343FB607B68A0
:103F10001B68FA681A607B689B68B3F5804F39D0DC
:103F20007B681B6C274A93421AD1294B1A687B681D
:103F30005B6C03F01C030F2101FA03F3DB432449FC
:103F400013400B60224B1A687B6859687B685B6C76
:103F500003F01C0301FA03F31D4913430B6019E03E
:103F60001C4B1A687B685B6C03F01C030F2101FA81
:103F700003F3DB43174913400B60164B1A687B6849
:103F800059687B685B6C03F01C0301FA03F3114969
:103F900013430B607B680022DA637B68012283F89D
:103FA00025207B68002283F824200023184614373C
:103FB000BD4680BC704700BF07040240F8FFFDBF4C
:103FC000CDCCCCCC00000240F8FBFDBF0004024089
:103FD000A8000240A804024080B586B000AFF86097
:103FE000B9607A603B600023FB75FB6893F824306E
:103FF000012B01D102234BE0FB68012283F824202E
:10400000FB6893F82530DBB2012B3AD1FB68022222
:1040100083F82520FB680022DA63FB681B681A68B6
:10402000FB681B6822F001021A603B687A68B96875
:10403000F86800F0E0F8FB681B6B002B08D0FB6809
:104040001B681A68FB681B6842F00E021A600FE0DA
:10405000FB681B681A68FB681B6822F004021A6080
:10406000FB681B681A68FB681B6842F00A021A604A
:10407000FB681B681A68FB681B6842F001021A6043
:1040800005E0FB68002283F824200223FB75FB7DFA
:1040900018461837BD4680BD80B584B000AF786043
:1040A0007B681B6C1B68FB607B681B681B68BB60C4
:1040B0007B685B6C03F01C0304229A40FB6813408E
:1040C000002B26D0BB6803F00403002B21D07B68B3
:1040D0001B681B6803F02003002B07D17B681B685B
:1040E0001A687B681B6822F004021A607B685B6CAC
:1040F00003F01C027B681B6C042101FA02F25A6077
:104100007B681B6B002B71D07B681B6B78689847B2
:104110006CE07B685B6C03F01C0302229A40FB6836
:104120001340002B2ED0BB6803F00203002B29D0D4
:104130007B681B681B6803F02003002B0BD17B6896
:104140001B681A687B681B6822F00A021A607B6889
:10415000012283F825207B685B6C03F01C027B68DE
:104160001B6C022101FA02F25A607B68002283F87C
:1041700024207B68DB6A002B38D07B68DB6A786898
:10418000984733E07B685B6C03F01C0308229A407D
:10419000FB681340002B2AD0BB6803F00803002BF8
:1041A00025D07B681B681A687B681B6822F00E02AA
:1041B0001A607B685B6C03F01C027B681B6C01213E
:1041C00001FA02F25A607B680122DA637B680122FD
:1041D00083F825207B68002283F824207B685B6BB2
:1041E000002B04D07B685B6B7868984700BF00BFEA
:1041F0001037BD4680BD80B485B000AFF860B960AF
:104200007A603B60FB685B6C03F01C02FB681B6C14
:10421000012101FA02F25A60FB681B683A685A6091
:10422000FB689B68102B08D1FB681B687A689A6052
:10423000FB681B68BA68DA6007E0FB681B68BA684D
:104240009A60FB681B687A68DA6000BF1437BD4665
:1042500080BC704780B487B000AF786039600023BD
:104260007B6148E13B681A6801217B6901FA03F32D
:104270001340FB60FB68002B00F03A813B685B68F1
:10428000022B03D03B685B68122B23D17B69DA08D1
:104290007B68083253F822303B617B6903F00703E7
:1042A0009B000F2202FA03F3DB433A6913403B61A0
:1042B0003B681A697B6903F007039B0002FA03F36A
:1042C0003A6913433B617B69DA087B6808323969D4
:1042D00043F822107B681B683B617B695B0003220B
:1042E00002FA03F3DB433A6913403B613B685B68C6
:1042F00003F003027B695B0002FA03F33A6913439C
:104300003B617B683A691A603B685B68012B0BD0A4
:104310003B685B68022B07D03B685B68112B03D0BE
:104320003B685B68122B30D17B689B683B617B6983
:104330005B00032202FA03F3DB433A6913403B615B
:104340003B68DA687B695B0002FA03F33A6913435E
:104350003B617B683A699A607B685B683B610122DC
:104360007B6902FA03F3DB433A6913403B613B6824
:104370005B681B0903F001027B6902FA03F33A69E7
:1043800013433B617B683A695A607B68DB683B6139
:104390007B695B00032202FA03F3DB433A691340B3
:1043A0003B613B689A687B695B0002FA03F33A69F8
:1043B00013433B617B683A69DA603B685B6803F0F2
:1043C0008053002B00F09480524B1B6E514A43F0F7
:1043D000010313664F4B1B6E03F00103BB60BB6808
:1043E0004D4A7B699B08023352F823303B617B695D
:1043F00003F003039B000F2202FA03F3DB433A6945
:1044000013403B617B68B3F1904F0DD07B68434A0A
:10441000934207D07B68424A934201D1022304E0D1
:10442000072302E0012300E000237A6902F003027F
:10443000920093403A6913433B6137497B699B087B
:1044400002333A6941F82320364B1B683B61FB6815
:10445000DB433A6913403B613B685B6803F480339C
:10446000002B03D03A69FB6813433B612D4A3B693B
:1044700013602C4B5B683B61FB68DB433A6913407C
:104480003B613B685B6803F40033002B03D03A695F
:10449000FB6813433B61234A3B695360214B9B6894
:1044A0003B61FB68DB433A6913403B613B685B68F7
:1044B00003F48013002B03D03A69FB6813433B617C
:1044C000184A3B699360174BDB683B61FB68DB4331
:1044D0003A6913403B613B685B6803F40013002BAF
:1044E00003D03A69FB6813433B610E4A3B69D360D2
:1044F0007B6901337B613B681A687B6922FA03F3AD
:10450000002B7FF4AFAE00BF00BF1C37BD4680BCA0
:10451000704700BF00100240000001400004004846
:10452000000800480004014080B582B000AF786008
:104530007B68002B01D1012381E07B6893F8413037
:10454000DBB2002B06D17B68002283F8402078681C
:10455000FEF7A4FA7B68242283F841207B681B685D
:104560001A687B681B6822F001021A607B685A682F
:104570007B681B6822F070621A617B681B689A680E
:104580007B681B6822F400429A607B68DB68012B21
:1045900007D17B689A687B681B6842F400429A6086
:1045A00006E07B689A687B681B6842F404429A6064
:1045B0007B68DB68022B04D17B681B684FF40062C8
:1045C0005A607B681B685B687A68126843F0007306
:1045D00043F4004353607B681B68DA687B681B68A0
:1045E00022F40042DA607B681A697B685B6942EA00
:1045F00003017B689B691A027B681B680A43DA60C7
:104600007B68D9697B681A6A7B681B680A431A60F1
:104610007B681B681A687B681B6842F001021A609D
:104620007B6800225A647B68202283F841207B68E3
:1046300000221A637B68002283F842200023184678
:104640000837BD4680BD000080B588B002AFF86075
:104650007A601A460B467B8113463B81FB6893F8D0
:104660004130DBB2202B40F0DA80FB6893F8403019
:10467000012B01D10223D3E0FB68012283F8402003
:10468000FEF7E8FA78617B690093192301224FF461
:104690000041F86800F0EFF80346002B01D0012339
:1046A000BEE0FB68212283F84120FB68102283F8DA
:1046B0004220FB6800225A64FB687A685A62FB68F1
:1046C0003A895A85FB6800225A63FB685B8D9BB26E
:1046D000FF2B0ED9FB68FF221A85FB681B8DDAB20F
:1046E0007989514B00934FF08073F86800F0E6F938
:1046F0006CE0FB685B8D9AB2FB681A85FB681B8DCA
:10470000DAB27989484B00934FF00073F86800F0F3
:10471000D5F95BE07A69396AF86800F0ECF803468D
:10472000002B01D001237BE0FB685B6A1A78FB68F1
:104730001B689A62FB685B6A5A1CFB685A62FB68DA
:104740005B8D9BB2013B9AB2FB685A85FB681B8D5F
:10475000013B9AB2FB681A85FB685B8D9BB2002B0C
:1047600034D0FB681B8D002B30D17B6900933B6AF2
:1047700000228021F86800F07EF80346002B01D06B
:1047800001234DE0FB685B8D9BB2FF2B0ED9FB68CC
:10479000FF221A85FB681B8DDAB27989002300930A
:1047A0004FF08073F86800F089F90FE0FB685B8DCB
:1047B0009AB2FB681A85FB681B8DDAB279890023EF
:1047C00000934FF00073F86800F078F9FB685B8D98
:1047D0009BB2002B9ED17A69396AF86800F0CBF859
:1047E0000346002B01D001231AE0FB681B6820223E
:1047F000DA61FB681B685968FB681A680B4B0B4051
:104800005360FB68202283F84120FB68002283F874
:104810004220FB68002283F84020002300E00223AE
:1048200018461837BD4680BD0020008000E800FE15
:1048300080B483B000AF78607B681B689B6903F02D
:104840000203022B03D17B681B6800229A627B68FB
:104850001B689B6903F00103012B07D07B681B6871
:104860009A697B681B6842F001029A6100BF0C37AD
:10487000BD4680BC704780B584B000AFF860B960B9
:104880003B601346FB7122E03B68B3F1FF3F1ED053
:10489000FEF7E0F90246BB69D31A3A689A4202D39E
:1048A0003B68002B13D1FB685B6C43F02002FB6874
:1048B0005A64FB68202283F84120FB68002283F8B9
:1048C0004220FB68002283F8402001230FE0FB68B0
:1048D0001B689A69BB681340BA689A420CBF0123EF
:1048E0000023DBB21A46FB799A42CDD0002318464A
:1048F0001037BD4680BD80B584B000AFF860B960A8
:104900007A602CE07A68B968F86800F071F80346BC
:10491000002B01D001232AE0BB68B3F1FF3F1ED07A
:10492000FEF798F902467B68D31ABA689A4202D316
:10493000BB68002B13D1FB685B6C43F02002FB6863
:104940005A64FB68202283F84120FB68002283F828
:104950004220FB68002283F84020012307E0FB6827
:104960001B689B6903F00203022BCBD1002318467E
:104970001037BD4680BD80B584B000AFF860B96027
:104980007A6028E07A68B968F86800F031F8034680
:10499000002B01D0012326E0FEF75CF902467B687C
:1049A000D31ABA689A4202D3BB68002B13D1FB68B2
:1049B0005B6C43F02002FB685A64FB68202283F89A
:1049C0004120FB68002283F84220FB68002283F824
:1049D0004020012307E0FB681B689B6903F020036C
:1049E000202BCFD1002318461037BD4680BD0000D4
:1049F00080B584B000AFF860B9607A60FB681B686E
:104A00009B6903F01003102B51D122E0BB68B3F176
:104A1000FF3F1ED0FEF71EF902467B68D31ABA6824
:104A20009A4202D3BB68002B13D1FB685B6C43F046
:104A30002002FB685A64FB68202283F84120FB684F
:104A4000002283F84220FB68002283F840200123E3
:104A50002EE0FB681B689B6903F02003202BD5D157
:104A6000FB681B681022DA61FB681B682022DA6190
:104A7000F868FFF7DDFEFB681B685968FB681A6879
:104A80000D4B0B405360FB685B6C43F00402FB680A
:104A90005A64FB68202283F84120FB68002283F8D7
:104AA0004220FB68002283F84020012300E000231D
:104AB00018461037BD4680BD00E800FE80B485B0C2
:104AC00000AFF8607B600B467B8113467B72FB680E
:104AD0001B685A68BB695B0D03F480610C4B0B4388
:104AE000DB4302EA03017B89C3F309027B7A1B04DF
:104AF00003F47F031A437B681A43BB691A43FB68BC
:104B00001B680A435A6000BF1437BD4680BC70471B
:104B1000FF63FF0380B483B000AF786039607B68C7
:104B200093F84130DBB2202B38D17B6893F84030CA
:104B3000012B01D1022332E07B68012283F840205F
:104B40007B68242283F841207B681B681A687B6895
:104B50001B6822F001021A607B681B681A687B6878
:104B60001B6822F480521A607B681B6819687B6896
:104B70001B683A680A431A607B681B681A687B687E
:104B80001B6842F001021A607B68202283F84120F2
:104B90007B68002283F84020002300E002231846AF
:104BA0000C37BD4680BC704780B485B000AF7860DC
:104BB00039607B6893F84130DBB2202B39D17B68B8
:104BC00093F84030012B01D1022333E07B680122AE
:104BD00083F840207B68242283F841207B681B688F
:104BE0001A687B681B6822F001021A607B681B68E8
:104BF0001B68FB60FB6823F47063FB603B681B026F
:104C0000FA681343FB607B681B68FA681A607B686C
:104C10001B681A687B681B6842F001021A607B6897
:104C2000202283F841207B68002283F84020002363
:104C300000E0022318461437BD4680BC70470000D0
:104C400080B400AF034B1B6803F4C0631846BD4635
:104C500080BC70470070004080B485B000AF7860C1
:104C60007B68B3F5007F30D1224B1B6803F4C0632F
:104C7000B3F5007F38D01F4B1B6823F4C0631D4A77
:104C800043F4007313601C4B1B68322202FB03F3D6
:104C90001A4AA2FB03239B0C0133FB6002E0FB6872
:104CA000013BFB60134B5B6903F48063B3F5806FDA
:104CB00002D1FB68002BF2D10E4B5B6903F48063D9
:104CC000B3F5806F10D103230FE00A4B1B6803F488
:104CD000C063B3F5806F07D0064B1B6823F4C06335
:104CE000044A43F480631360002318461437BD461A
:104CF00080BC7047007000400000002083DE1B4332
:104D000080B588B000AF78607B68002B01D10123AB
:104D100095E3A34B9B6803F00C03BB61A04BDB68DE
:104D200003F003037B617B681B6803F01003002B17
:104D300000F0DF80BB69002B07D0BB690C2B40F073
:104D400086807B69012B40F08280954B1B6803F0C5
:104D50000203002B05D07B689B69002B01D1012346
:104D60006DE37B681A6A8E4B1B6803F00803002B07
:104D700004D08B4B1B6803F0F00305E0884BD3F89D
:104D800094301B0903F0F003934223D27B681B6A23
:104D9000184600F0DFFC0346002B01D001234EE350
:104DA0007F4B1B687E4A43F0080313607C4B1B68F3
:104DB00023F0F0027B681B6A794913430B60784B40
:104DC0005B6823F47F427B68DB691B0274491343F1
:104DD0004B6022E0724B1B68714A43F0080313607A
:104DE0006F4B1B6823F0F0027B681B6A6C4913430E
:104DF0000B606B4B5B6823F47F427B68DB691B02B3
:104E0000674913434B607B681B6A184600F0A2FC9D
:104E10000346002B01D0012311E300F0F5FB02460D
:104E20005F4B9B681B0903F00F035E49CB5C03F0EB
:104E30001F0322FA03F35C4A13600020FDF7D8FE3B
:104E40000346FB73FB7B002B52D0FB7BF7E27B68B6
:104E50009B69002B32D0524B1B68514A43F001032F
:104E60001360FDF7F7FE386108E0FDF7F3FE024638
:104E70003B69D31A022B01D90323E0E2484B1B689C
:104E800003F00203002BF0D0454B1B68444A43F06B
:104E900008031360424B1B6823F0F0027B681B6A17
:104EA0003F4913430B603E4B5B6823F47F427B68B2
:104EB000DB691B023A4913434B601AE0384B1B680D
:104EC000374A23F001031360FDF7C4FE386108E0A0
:104ED000FDF7C0FE02463B69D31A022B01D903231A
:104EE000ADE22F4B1B6803F00203002BF0D100E072
:104EF00000BF7B681B6803F00103002B72D0BB6905
:104F0000082B05D0BB690C2B0ED17B69032B0BD171
:104F1000234B1B6803F40033002B62D07B685B6873
:104F2000002B5ED101238AE27B685B68B3F5803F8A
:104F300006D11B4B1B681A4A43F4803313601DE0F3
:104F40007B685B68B3F5A02F0CD1154B1B68144A26
:104F500043F480231360124B1B68114A43F48033DF
:104F600013600BE00E4B1B680D4A23F48033136073
:104F70000B4B1B680A4A23F4802313607B685B6831
:104F8000002B1AD0FDF766FE38610FE0FDF762FED8
:104F900002463B69D31A642B08D903234FE200BFB2
:104FA00000100240D0CD000800000020AE4B1B686E
:104FB00003F40033002BE9D014E0FDF74BFE386119
:104FC00008E0FDF747FE02463B69D31A642B01D97E
:104FD000032334E2A44B1B6803F40033002BF0D10D
:104FE00000E000BF7B681B6803F00203002B60D069
:104FF000BB69042B05D0BB690C2B19D17B69022B33
:1050000016D1994B1B6803F48063002B05D07B6895
:10501000DB68002B01D1012311E2934B5B6823F085
:10502000F8527B681B691B068F4913434B6040E0B5
:105030007B68DB68002B23D08B4B1B688A4A43F4C8
:1050400080731360FDF706FE386108E0FDF702FE8D
:1050500002463B69D31A022B01D90323EFE1824BAD
:105060001B6803F48063002BF0D07F4B5B6823F058
:10507000F8527B681B691B067B4913434B6018E0A1
:10508000794B1B68784A23F480731360FDF7E2FDC7
:10509000386108E0FDF7DEFD02463B69D31A022BBA
:1050A00001D90323CBE1704B1B6803F48063002B11
:1050B000F0D17B681B6803F00803002B3CD07B68B1
:1050C0005B69002B1CD0684BD3F89430664A43F0E0
:1050D0000103C2F89430FDF7BDFD386108E0FDF72B
:1050E000B9FD02463B69D31A022B01D90323A6E17D
:1050F0005D4BD3F8943003F00203002BEFD01BE09C
:10510000594BD3F89430584A23F00103C2F8943035
:10511000FDF7A0FD386108E0FDF79CFD02463B6904
:10512000D31A022B01D9032389E14F4BD3F89430D2
:1051300003F00203002BEFD17B681B6803F004032C
:10514000002B00F0A5800023FB77474B9B6D03F0FD
:105150008053002B0DD1444B9B6D434A43F0805349
:105160009365414B9B6D03F08053BB60BB6801238B
:10517000FB773E4B1B6803F48073002B18D13B4B2D
:105180001B683A4A43F480731360FDF763FD38618E
:1051900008E0FDF75FFD02463B69D31A022B01D9F7
:1051A00003234CE1314B1B6803F48073002BF0D0D8
:1051B0007B689B68012B08D12B4BD3F890302A4A8F
:1051C00043F00103C2F8903024E07B689B68052B14
:1051D00010D1254BD3F89030234A43F00403C2F892
:1051E0009030214BD3F890301F4A43F00103C2F8AE
:1051F00090300FE01C4BD3F890301B4A23F0010392
:10520000C2F89030184BD3F89030174A23F00403BB
:10521000C2F890307B689B68002B16D0FDF71AFD12
:1052200038610AE0FDF716FD02463B69D31A41F2E8
:105230008832934201D9032301E10B4BD3F890301C
:1052400003F00203002BEDD019E0FDF703FD3861F8
:105250000EE0FDF7FFFC02463B69D31A41F28832AB
:10526000934205D90323EAE0001002400070004099
:10527000754BD3F8903003F00203002BE9D1FB7F8C
:10528000012B05D1704B9B6D6F4A23F080539365C2
:105290007B681B6803F02003002B3CD07B685B6AB3
:1052A000002B1CD0684BD3F89830674A43F00103B9
:1052B000C2F89830FDF7CEFC386108E0FDF7CAFC73
:1052C00002463B69D31A022B01D90323B7E05E4B98
:1052D000D3F8983003F00203002BEFD01BE05A4BB9
:1052E000D3F89830584A23F00103C2F89830FDF7FC
:1052F000B1FC386108E0FDF7ADFC02463B69D31A0A
:10530000022B01D903239AE04F4BD3F8983003F0D6
:105310000203002BEFD17B689B6A002B00F08E808C
:10532000BB690C2B00F088807B689B6A022B55D1EF
:10533000454B1B68444A23F080731360FDF78AFCD9
:10534000386108E0FDF786FC02463B69D31A022B60
:1053500001D9032373E03C4B1B6803F00073002B5F
:10536000F0D17B681B6B013B1A017B685B6B1B02F6
:105370001A437B68DB6A1A437B68DB6B5B08013B83
:105380005B051A437B681B6C5B08013B5B061A4399
:105390007B689B6BDB062C491343CB602A4B1B6855
:1053A000294A43F080731360274BDB68264A43F099
:1053B0008073D360FDF74EFC386108E0FDF74AFCCE
:1053C00002463B69D31A022B01D9032337E01E4B57
:1053D0001B6803F00073002BF0D02FE01A4B1B6802
:1053E000194A23F080731360174B1B6803F00063A6
:1053F000002B05D1144BDB68134A23F00303D36061
:10540000114BDB68104A23F0887323F48033D36098
:10541000FDF720FC386108E0FDF71CFC02463B6903
:10542000D31A022B01D9032309E0074B1B6803F0B1
:105430000073002BF0D101E0012300E000231846A7
:105440002037BD4680BD00BF0010024080B584B04B
:1054500000AF786039607B68002B01D10123C6E082
:10546000654B1B6803F007033A689A4210D9624BF8
:105470001B6823F0070260493B6813430B605E4BD7
:105480001B6803F007033A689A4201D00123AEE09B
:105490007B681B6803F00103002B4CD07B685B68C2
:1054A000032B07D1554B1B6803F00073002B21D150
:1054B00001239CE07B685B68022B07D14F4B1B6884
:1054C00003F40033002B15D1012390E07B685B6867
:1054D000002B07D1494B1B6803F00203002B09D1B5
:1054E000012384E0454B1B6803F48063002B01D14A
:1054F00001237CE0414B9B6823F003027B685B68DF
:105500003E4913438B60FDF7A5FBF8600AE0FDF709
:10551000A1FB0246FB68D31A41F28832934201D9BB
:10552000032364E0354B9B6803F00C027B685B68E7
:105530009B009A42EBD17B681B6803F00203002BAF
:1055400008D02E4B9B6823F0F0027B689B682B49A8
:1055500013438B60284B1B6803F007033A689A4299
:1055600010D2254B1B6823F0070223493B681343E5
:105570000B60214B1B6803F007033A689A4201D085
:10558000012334E07B681B6803F00403002B08D080
:105590001A4B9B6823F4E0627B68DB68174913436E
:1055A0008B607B681B6803F00803002B09D0134B4A
:1055B0009B6823F460527B681B69DB000F4913432F
:1055C0008B6000F021F802460C4B9B681B0903F02E
:1055D0000F030B49CB5C03F01F0322FA03F3094AC4
:1055E00013600020FDF704FB0346FB72FB7A1846AC
:1055F0001037BD4680BD00BF0020024000100240B1
:10560000D0CD00080000002080B489B000AF002396
:10561000FB610023BB61464B9B6803F00C033B61BD
:10562000434BDB6803F00303FB603B69002B05D0B1
:105630003B690C2B21D1FB68012B1ED13C4B1B6815
:1056400003F00803002B07D1394BD3F894301B0A21
:1056500003F00F03FB6105E0354B1B681B0903F0EA
:105660000F03FB61334AFB6952F82330FB613B694E
:10567000002B0DD1FB69BB610AE03B69042B02D111
:105680002D4BBB6104E03B69082B01D12B4BBB6167
:105690003B690C2B46D1264BDB6803F00303BB6050
:1056A000234BDB681B0903F0070301337B60BB68F6
:1056B000022B03D0BB68032B0DD019E01E4A7B6878
:1056C000B2FBF3F31A4AD268120A02F07F0202FB1D
:1056D00003F37B6119E0194A7B68B2FBF3F3144AC8
:1056E000D268120A02F07F0202FB03F37B610CE036
:1056F000FA697B68B2FBF3F30D4AD268120A02F032
:105700007F0202FB03F37B6100BF094BDB685B0E8A
:1057100003F0030301335B003B607A693B68B2FB33
:10572000F3F3BB61BB6918462437BD4680BC7047A4
:1057300000100240E0CD00080024F40000127A00BE
:1057400080B400AF024B1B681846BD4680BC704752
:105750000000002080B586B000AF786000233B6178
:105760002A4B9B6D03F08053002B03D0FFF768FAA0
:10577000786114E0254B9B6D244A43F08053936578
:10578000224B9B6D03F08053FB60FB68FFF758FAD8
:1057900078611E4B9B6D1D4A23F0805393657B6996
:1057A000B3F5007F0BD17B68802B19D97B68A02BC8
:1057B00002D902233B6113E001233B6110E07B68C7
:1057C000802B02D903233B610AE07B68802B02D146
:1057D00002233B6104E07B68702B01D101233B6114
:1057E0000B4B1B6823F0070209493B6913430B600D
:1057F000074B1B6803F007033A699A4201D0012363
:1058000000E0002318461837BD4680BD0010024056
:105810000020024080B586B000AF78600023FB74A2
:105820000023BB747B681B6803F40063002B31D03A
:105830007B68DB6BB3F5400F1AD0B3F5400F14D87B
:10584000002B09D0B3F5000F0FD1AC4BDB68AB4A8E
:1058500043F48033D3600CE07B68043300211846A6
:1058600000F0CCF90346FB7403E00123FB7400E075
:1058700000BFFB7C002B0BD1A04BD3F8883023F466
:1058800040027B68DB6B9D491343C1F8883001E01F
:10589000FB7CBB747B681B6803F40033002B00F0B7
:1058A000998000237B74954B9B6D03F08053002BF4
:1058B00001D1012300E00023002B0DD08F4B9B6D05
:1058C0008E4A43F0805393658C4B9B6D03F080535D
:1058D000BB60BB6801237B74894B1B68884A43F417
:1058E00080731360FDF7B6F9F86009E0FDF7B2F9CF
:1058F0000246FB68D31A022B02D90323FB7405E08E
:105900007F4B1B6803F48073002BEFD0FB7C002BD4
:1059100055D17A4BD3F8903003F440737B617B69A7
:10592000002B1ED07B681B6D7A699A4219D0734B8D
:10593000D3F8903023F440737B61704BD3F89030F0
:105940006E4A43F48033C2F890306C4BD3F89030F9
:105950006A4A23F48033C2F89030684A7B69C2F8FF
:1059600090307B6903F00103002B16D0FDF772F92C
:10597000F8600BE0FDF76EF90246FB68D31A41F2BE
:105980008832934202D90323FB7406E05B4BD3F8C1
:10599000903003F00203002BECD0FB7C002B0BD1EA
:1059A000564BD3F8903023F440727B681B6D5349FB
:1059B0001343C1F8903004E0FB7CBB7401E0FB7C36
:1059C000BB747B7C012B05D14C4B9B6D4B4A23F068
:1059D000805393657B681B6803F00103002B0AD09A
:1059E000464BD3F8883023F003027B681B6A434997
:1059F0001343C1F888307B681B6803F00203002B57
:105A00000AD03E4BD3F8883023F00C027B685B6AE7
:105A10003A491343C1F888307B681B6803F02003C0
:105A2000002B0AD0354BD3F8883023F440627B68D2
:105A30009B6A32491343C1F888307B681B6803F4C2
:105A40000073002B0AD02D4BD3F8883023F440226A
:105A50007B685B6B29491343C1F888307B681B68FE
:105A600003F48063002B0AD0244BD3F8883023F44E
:105A700040127B689B6B21491343C1F888307B68D7
:105A80001B6803F04003002B0AD01C4BD3F888306E
:105A900023F440527B68DB6A18491343C1F888300D
:105AA0007B681B6803F48073002B0AD0134BD3F878
:105AB000883023F440327B681B6B10491343C1F8D4
:105AC00088307B681B6803F40053002B2CD00B4BF1
:105AD000D3F8883023F040627B681B6C074913437E
